{
    "_format": "hh-sol-artifact-1",
    "contractName": "WorkshopFactory",
    "sourceName": "contracts/WorkshopFactory.sol",
    "abi": [
        {
            "inputs": [],
            "stateMutability": "nonpayable",
            "type": "constructor"
        },
        {
            "inputs": [
                {
                    "internalType": "address",
                    "name": "sender",
                    "type": "address"
                },
                {
                    "internalType": "uint256",
                    "name": "tokenId",
                    "type": "uint256"
                },
                {
                    "internalType": "address",
                    "name": "owner",
                    "type": "address"
                }
            ],
            "name": "ERC721IncorrectOwner",
            "type": "error"
        },
        {
            "inputs": [
                {
                    "internalType": "address",
                    "name": "operator",
                    "type": "address"
                },
                {
                    "internalType": "uint256",
                    "name": "tokenId",
                    "type": "uint256"
                }
            ],
            "name": "ERC721InsufficientApproval",
            "type": "error"
        },
        {
            "inputs": [
                {
                    "internalType": "address",
                    "name": "approver",
                    "type": "address"
                }
            ],
            "name": "ERC721InvalidApprover",
            "type": "error"
        },
        {
            "inputs": [
                {
                    "internalType": "address",
                    "name": "operator",
                    "type": "address"
                }
            ],
            "name": "ERC721InvalidOperator",
            "type": "error"
        },
        {
            "inputs": [
                {
                    "internalType": "address",
                    "name": "owner",
                    "type": "address"
                }
            ],
            "name": "ERC721InvalidOwner",
            "type": "error"
        },
        {
            "inputs": [
                {
                    "internalType": "address",
                    "name": "receiver",
                    "type": "address"
                }
            ],
            "name": "ERC721InvalidReceiver",
            "type": "error"
        },
        {
            "inputs": [
                {
                    "internalType": "address",
                    "name": "sender",
                    "type": "address"
                }
            ],
            "name": "ERC721InvalidSender",
            "type": "error"
        },
        {
            "inputs": [
                {
                    "internalType": "uint256",
                    "name": "tokenId",
                    "type": "uint256"
                }
            ],
            "name": "ERC721NonexistentToken",
            "type": "error"
        },
        {
            "anonymous": false,
            "inputs": [
                {
                    "indexed": true,
                    "internalType": "address",
                    "name": "owner",
                    "type": "address"
                },
                {
                    "indexed": true,
                    "internalType": "address",
                    "name": "approved",
                    "type": "address"
                },
                {
                    "indexed": true,
                    "internalType": "uint256",
                    "name": "tokenId",
                    "type": "uint256"
                }
            ],
            "name": "Approval",
            "type": "event"
        },
        {
            "anonymous": false,
            "inputs": [
                {
                    "indexed": true,
                    "internalType": "address",
                    "name": "owner",
                    "type": "address"
                },
                {
                    "indexed": true,
                    "internalType": "address",
                    "name": "operator",
                    "type": "address"
                },
                {
                    "indexed": false,
                    "internalType": "bool",
                    "name": "approved",
                    "type": "bool"
                }
            ],
            "name": "ApprovalForAll",
            "type": "event"
        },
        {
            "anonymous": false,
            "inputs": [
                {
                    "indexed": true,
                    "internalType": "address",
                    "name": "from",
                    "type": "address"
                },
                {
                    "indexed": true,
                    "internalType": "address",
                    "name": "to",
                    "type": "address"
                },
                {
                    "indexed": true,
                    "internalType": "uint256",
                    "name": "tokenId",
                    "type": "uint256"
                }
            ],
            "name": "Transfer",
            "type": "event"
        },
        {
            "inputs": [
                {
                    "internalType": "address",
                    "name": "to",
                    "type": "address"
                },
                {
                    "internalType": "uint256",
                    "name": "tokenId",
                    "type": "uint256"
                }
            ],
            "name": "approve",
            "outputs": [],
            "stateMutability": "nonpayable",
            "type": "function"
        },
        {
            "inputs": [
                {
                    "internalType": "address",
                    "name": "owner",
                    "type": "address"
                }
            ],
            "name": "balanceOf",
            "outputs": [
                {
                    "internalType": "uint256",
                    "name": "",
                    "type": "uint256"
                }
            ],
            "stateMutability": "view",
            "type": "function"
        },
        {
            "inputs": [
                {
                    "internalType": "uint256",
                    "name": "tokenId",
                    "type": "uint256"
                }
            ],
            "name": "getApproved",
            "outputs": [
                {
                    "internalType": "address",
                    "name": "",
                    "type": "address"
                }
            ],
            "stateMutability": "view",
            "type": "function"
        },
        {
            "inputs": [
                {
                    "internalType": "address",
                    "name": "owner",
                    "type": "address"
                },
                {
                    "internalType": "address",
                    "name": "operator",
                    "type": "address"
                }
            ],
            "name": "isApprovedForAll",
            "outputs": [
                {
                    "internalType": "bool",
                    "name": "",
                    "type": "bool"
                }
            ],
            "stateMutability": "view",
            "type": "function"
        },
        {
            "inputs": [
                {
                    "internalType": "address",
                    "name": "player",
                    "type": "address"
                },
                {
                    "internalType": "string",
                    "name": "workshopType",
                    "type": "string"
                }
            ],
            "name": "mintWorkshop",
            "outputs": [],
            "stateMutability": "nonpayable",
            "type": "function"
        },
        {
            "inputs": [],
            "name": "name",
            "outputs": [
                {
                    "internalType": "string",
                    "name": "",
                    "type": "string"
                }
            ],
            "stateMutability": "view",
            "type": "function"
        },
        {
            "inputs": [],
            "name": "nextTokenId",
            "outputs": [
                {
                    "internalType": "uint256",
                    "name": "",
                    "type": "uint256"
                }
            ],
            "stateMutability": "view",
            "type": "function"
        },
        {
            "inputs": [],
            "name": "owner",
            "outputs": [
                {
                    "internalType": "address",
                    "name": "",
                    "type": "address"
                }
            ],
            "stateMutability": "view",
            "type": "function"
        },
        {
            "inputs": [
                {
                    "internalType": "uint256",
                    "name": "tokenId",
                    "type": "uint256"
                }
            ],
            "name": "ownerOf",
            "outputs": [
                {
                    "internalType": "address",
                    "name": "",
                    "type": "address"
                }
            ],
            "stateMutability": "view",
            "type": "function"
        },
        {
            "inputs": [
                {
                    "internalType": "address",
                    "name": "",
                    "type": "address"
                }
            ],
            "name": "playerLevel",
            "outputs": [
                {
                    "internalType": "uint256",
                    "name": "",
                    "type": "uint256"
                }
            ],
            "stateMutability": "view",
            "type": "function"
        },
        {
            "inputs": [
                {
                    "internalType": "address",
                    "name": "from",
                    "type": "address"
                },
                {
                    "internalType": "address",
                    "name": "to",
                    "type": "address"
                },
                {
                    "internalType": "uint256",
                    "name": "tokenId",
                    "type": "uint256"
                }
            ],
            "name": "safeTransferFrom",
            "outputs": [],
            "stateMutability": "nonpayable",
            "type": "function"
        },
        {
            "inputs": [
                {
                    "internalType": "address",
                    "name": "from",
                    "type": "address"
                },
                {
                    "internalType": "address",
                    "name": "to",
                    "type": "address"
                },
                {
                    "internalType": "uint256",
                    "name": "tokenId",
                    "type": "uint256"
                },
                {
                    "internalType": "bytes",
                    "name": "data",
                    "type": "bytes"
                }
            ],
            "name": "safeTransferFrom",
            "outputs": [],
            "stateMutability": "nonpayable",
            "type": "function"
        },
        {
            "inputs": [
                {
                    "internalType": "address",
                    "name": "operator",
                    "type": "address"
                },
                {
                    "internalType": "bool",
                    "name": "approved",
                    "type": "bool"
                }
            ],
            "name": "setApprovalForAll",
            "outputs": [],
            "stateMutability": "nonpayable",
            "type": "function"
        },
        {
            "inputs": [
                {
                    "internalType": "address",
                    "name": "player",
                    "type": "address"
                },
                {
                    "internalType": "uint256",
                    "name": "level",
                    "type": "uint256"
                }
            ],
            "name": "setPlayerLevel",
            "outputs": [],
            "stateMutability": "nonpayable",
            "type": "function"
        },
        {
            "inputs": [
                {
                    "internalType": "bytes4",
                    "name": "interfaceId",
                    "type": "bytes4"
                }
            ],
            "name": "supportsInterface",
            "outputs": [
                {
                    "internalType": "bool",
                    "name": "",
                    "type": "bool"
                }
            ],
            "stateMutability": "view",
            "type": "function"
        },
        {
            "inputs": [],
            "name": "symbol",
            "outputs": [
                {
                    "internalType": "string",
                    "name": "",
                    "type": "string"
                }
            ],
            "stateMutability": "view",
            "type": "function"
        },
        {
            "inputs": [
                {
                    "internalType": "uint256",
                    "name": "tokenId",
                    "type": "uint256"
                }
            ],
            "name": "tokenURI",
            "outputs": [
                {
                    "internalType": "string",
                    "name": "",
                    "type": "string"
                }
            ],
            "stateMutability": "view",
            "type": "function"
        },
        {
            "inputs": [
                {
                    "internalType": "address",
                    "name": "from",
                    "type": "address"
                },
                {
                    "internalType": "address",
                    "name": "to",
                    "type": "address"
                },
                {
                    "internalType": "uint256",
                    "name": "tokenId",
                    "type": "uint256"
                }
            ],
            "name": "transferFrom",
            "outputs": [],
            "stateMutability": "nonpayable",
            "type": "function"
        },
        {
            "inputs": [
                {
                    "internalType": "uint256",
                    "name": "",
                    "type": "uint256"
                }
            ],
            "name": "workshopTypes",
            "outputs": [
                {
                    "internalType": "string",
                    "name": "",
                    "type": "string"
                }
            ],
            "stateMutability": "view",
            "type": "function"
        }
    ],
    "bytecode": "0x60806040523480156200001157600080fd5b5060405180604001604052806012815260200171044654669437261667420576f726b73686f760741b815250604051806040016040528060088152602001670574f524b53484f560c41b81525081600090816200006f919062000140565b5060016200007e828262000140565b5050600780546001600160a01b03191633179055506200020c565b634e487b7160e01b600052604160045260246000fd5b600181811c90821680620000c457607f821691505b602082108103620000e557634e487b7160e01b600052602260045260246000fd5b50919050565b601f8211156200013b576000816000526020600020601f850160051c81016020861015620001165750805b601f850160051c820191505b81811015620001375782815560010162000122565b5050505b505050565b81516001600160401b038111156200015c576200015c62000099565b62000174816200016d8454620000af565b84620000eb565b602080601f831160018114620001ac5760008415620001935750858301515b600019600386901b1c1916600185901b17855562000137565b600085815260208120601f198616915b82811015620001dd57888601518255948401946001909101908401620001bc565b5085821015620001fc5787850151600019600388901b60f8161c191681555b5050505050600190811b01905550565b611322806200021c6000396000f3fe608060405234801561001057600080fd5b50600436106101215760003560e01c806375794a3c116100ad578063b88d4fde11610071578063b88d4fde14610267578063c87b56dd1461027a578063d296232c1461028d578063dea90512146102a0578063e985e9c5146102b357600080fd5b806375794a3c1461021d57806377539ac3146102265780638da5cb5b1461023957806395d89b411461024c578063a22cb4651461025457600080fd5b806314c84f3a116100f457806314c84f3a146101a357806323b872dd146101d157806342842e0e146101e45780636352211e146101f757806370a082311461020a57600080fd5b806301ffc9a71461012657806306fdde031461014e578063081812fc14610163578063095ea7b31461018e575b600080fd5b610139610134366004610deb565b6102c6565b60405190151581526020015b60405180910390f35b610156610318565b6040516101459190610e58565b610176610171366004610e6b565b6103aa565b6040516001600160a01b039091168152602001610145565b6101a161019c366004610ea0565b6103d3565b005b6101c36101b1366004610eca565b60096020526000908152604090205481565b604051908152602001610145565b6101a16101df366004610ee5565b6103e2565b6101a16101f2366004610ee5565b610472565b610176610205366004610e6b565b610492565b6101c3610218366004610eca565b61049d565b6101c360065481565b610156610234366004610e6b565b6104e5565b600754610176906001600160a01b031681565b61015661057f565b6101a1610262366004610f21565b61058e565b6101a1610275366004610fe9565b610599565b610156610288366004610e6b565b6105b1565b6101a161029b366004611065565b610626565b6101a16102ae366004610ea0565b610667565b6101396102c13660046110c7565b6106c9565b60006001600160e01b031982166380ac58cd60e01b14806102f757506001600160e01b03198216635b5e139f60e01b145b8061031257506301ffc9a760e01b6001600160e01b03198316145b92915050565b606060008054610327906110fa565b80601f0160208091040260200160405190810160405280929190818152602001828054610353906110fa565b80156103a05780601f10610375576101008083540402835291602001916103a0565b820191906000526020600020905b81548152906001019060200180831161038357829003601f168201915b5050505050905090565b60006103b5826106f7565b506000828152600460205260409020546001600160a01b0316610312565b6103de828233610730565b5050565b6001600160a01b03821661041157604051633250574960e11b8152600060048201526024015b60405180910390fd5b600061041e83833361073d565b9050836001600160a01b0316816001600160a01b03161461046c576040516364283d7b60e01b81526001600160a01b0380861660048301526024820184905282166044820152606401610408565b50505050565b61048d83838360405180602001604052806000815250610599565b505050565b6000610312826106f7565b60006001600160a01b0382166104c9576040516322718ad960e21b815260006004820152602401610408565b506001600160a01b031660009081526003602052604090205490565b600860205260009081526040902080546104fe906110fa565b80601f016020809104026020016040519081016040528092919081815260200182805461052a906110fa565b80156105775780601f1061054c57610100808354040283529160200191610577565b820191906000526020600020905b81548152906001019060200180831161055a57829003601f168201915b505050505081565b606060018054610327906110fa565b6103de338383610836565b6105a48484846103e2565b61046c33858585856108d5565b60606105bc826106f7565b5060006105d460408051602081019091526000815290565b905060008151116105f4576040518060200160405280600081525061061f565b806105fe84610a00565b60405160200161060f929190611134565b6040516020818303038152906040525b9392505050565b61063282600654610a93565b600654600090815260086020526040902061064d82826111ab565b506006805490600061065e8361126b565b91905055505050565b6007546001600160a01b031633146106ad5760405162461bcd60e51b81526020600482015260096024820152682737ba1037bbb732b960b91b6044820152606401610408565b6001600160a01b03909116600090815260096020526040902055565b6001600160a01b03918216600090815260056020908152604080832093909416825291909152205460ff1690565b6000818152600260205260408120546001600160a01b03168061031257604051637e27328960e01b815260048101849052602401610408565b61048d8383836001610aad565b6000828152600260205260408120546001600160a01b039081169083161561076a5761076a818486610bb3565b6001600160a01b038116156107a857610787600085600080610aad565b6001600160a01b038116600090815260036020526040902080546000190190555b6001600160a01b038516156107d7576001600160a01b0385166000908152600360205260409020805460010190555b60008481526002602052604080822080546001600160a01b0319166001600160a01b0389811691821790925591518793918516917fddf252ad1be2c89b69c2b068fc378daa952ba7f163c4a11628f55a4df523b3ef91a4949350505050565b6001600160a01b03821661086857604051630b61174360e31b81526001600160a01b0383166004820152602401610408565b6001600160a01b03838116600081815260056020908152604080832094871680845294825291829020805460ff191686151590811790915591519182527f17307eab39ab6107e8899845ad3d59bd9653f200f220920489ca2b5937696c31910160405180910390a3505050565b6001600160a01b0383163b156109f957604051630a85bd0160e11b81526001600160a01b0384169063150b7a0290610917908890889087908790600401611292565b6020604051808303816000875af1925050508015610952575060408051601f3d908101601f1916820190925261094f918101906112cf565b60015b6109bb573d808015610980576040519150601f19603f3d011682016040523d82523d6000602084013e610985565b606091505b5080516000036109b357604051633250574960e11b81526001600160a01b0385166004820152602401610408565b805181602001fd5b6001600160e01b03198116630a85bd0160e11b146109f757604051633250574960e11b81526001600160a01b0385166004820152602401610408565b505b5050505050565b60606000610a0d83610c17565b600101905060008167ffffffffffffffff811115610a2d57610a2d610f5d565b6040519080825280601f01601f191660200182016040528015610a57576020820181803683370190505b5090508181016020015b600019016f181899199a1a9b1b9c1cb0b131b232b360811b600a86061a8153600a8504945084610a6157509392505050565b6103de828260405180602001604052806000815250610cef565b8080610ac157506001600160a01b03821615155b15610b83576000610ad1846106f7565b90506001600160a01b03831615801590610afd5750826001600160a01b0316816001600160a01b031614155b8015610b105750610b0e81846106c9565b155b15610b395760405163a9fbf51f60e01b81526001600160a01b0384166004820152602401610408565b8115610b815783856001600160a01b0316826001600160a01b03167f8c5be1e5ebec7d5bd14f71427d1e84f3dd0314c0f7b2291e5b200ac8c7c3b92560405160405180910390a45b505b5050600090815260046020526040902080546001600160a01b0319166001600160a01b0392909216919091179055565b610bbe838383610d07565b61048d576001600160a01b038316610bec57604051637e27328960e01b815260048101829052602401610408565b60405163177e802f60e01b81526001600160a01b038316600482015260248101829052604401610408565b60008072184f03e93ff9f4daa797ed6e38ed64bf6a1f0160401b8310610c565772184f03e93ff9f4daa797ed6e38ed64bf6a1f0160401b830492506040015b6d04ee2d6d415b85acef81000000008310610c82576d04ee2d6d415b85acef8100000000830492506020015b662386f26fc100008310610ca057662386f26fc10000830492506010015b6305f5e1008310610cb8576305f5e100830492506008015b6127108310610ccc57612710830492506004015b60648310610cde576064830492506002015b600a83106103125760010192915050565b610cf98383610d6d565b61048d3360008585856108d5565b60006001600160a01b03831615801590610d655750826001600160a01b0316846001600160a01b03161480610d415750610d4184846106c9565b80610d6557506000828152600460205260409020546001600160a01b038481169116145b949350505050565b6001600160a01b038216610d9757604051633250574960e11b815260006004820152602401610408565b6000610da58383600061073d565b90506001600160a01b0381161561048d576040516339e3563760e11b815260006004820152602401610408565b6001600160e01b031981168114610de857600080fd5b50565b600060208284031215610dfd57600080fd5b813561061f81610dd2565b60005b83811015610e23578181015183820152602001610e0b565b50506000910152565b60008151808452610e44816020860160208601610e08565b601f01601f19169290920160200192915050565b60208152600061061f6020830184610e2c565b600060208284031215610e7d57600080fd5b5035919050565b80356001600160a01b0381168114610e9b57600080fd5b919050565b60008060408385031215610eb357600080fd5b610ebc83610e84565b946020939093013593505050565b600060208284031215610edc57600080fd5b61061f82610e84565b600080600060608486031215610efa57600080fd5b610f0384610e84565b9250610f1160208501610e84565b9150604084013590509250925092565b60008060408385031215610f3457600080fd5b610f3d83610e84565b915060208301358015158114610f5257600080fd5b809150509250929050565b634e487b7160e01b600052604160045260246000fd5b600067ffffffffffffffff80841115610f8e57610f8e610f5d565b604051601f8501601f19908116603f01168101908282118183101715610fb657610fb6610f5d565b81604052809350858152868686011115610fcf57600080fd5b858560208301376000602087830101525050509392505050565b60008060008060808587031215610fff57600080fd5b61100885610e84565b935061101660208601610e84565b925060408501359150606085013567ffffffffffffffff81111561103957600080fd5b8501601f8101871361104a57600080fd5b61105987823560208401610f73565b91505092959194509250565b6000806040838503121561107857600080fd5b61108183610e84565b9150602083013567ffffffffffffffff81111561109d57600080fd5b8301601f810185136110ae57600080fd5b6110bd85823560208401610f73565b9150509250929050565b600080604083850312156110da57600080fd5b6110e383610e84565b91506110f160208401610e84565b90509250929050565b600181811c9082168061110e57607f821691505b60208210810361112e57634e487b7160e01b600052602260045260246000fd5b50919050565b60008351611146818460208801610e08565b83519083019061115a818360208801610e08565b01949350505050565b601f82111561048d576000816000526020600020601f850160051c8101602086101561118c5750805b601f850160051c820191505b818110156109f757828155600101611198565b815167ffffffffffffffff8111156111c5576111c5610f5d565b6111d9816111d384546110fa565b84611163565b602080601f83116001811461120e57600084156111f65750858301515b600019600386901b1c1916600185901b1785556109f7565b600085815260208120601f198616915b8281101561123d5788860151825594840194600190910190840161121e565b508582101561125b5787850151600019600388901b60f8161c191681555b5050505050600190811b01905550565b60006001820161128b57634e487b7160e01b600052601160045260246000fd5b5060010190565b6001600160a01b03858116825284166020820152604081018390526080606082018190526000906112c590830184610e2c565b9695505050505050565b6000602082840312156112e157600080fd5b815161061f81610dd256fea264697066735822122062f5258e06ee7d79d55c65fb9dc9643b97273ba9697aa4d09fa0d03c29b9781764736f6c63430008180033",
    "linkReferences": {},
    "deployedLinkReferences": {}
}